:2000000009C0FECFFDCF18C0FBCFFACFF9CFF8CFF7CFF6CFF894EE27ECBBE5BF8DE0A2E01E
:20002000ED938A95E9F780E4A0E6ED938A95E9F7EFE9EDBFC0E753C0AA93BA93EA93FA9306
:20004000EFB7EA9328D149F0E4ECF9E09E16AF0620F4E1E0F0E09E0EAF1E21D141F023D104
:2000600030F4ED2DFE2D3196DE2EEF2E3197E0917C00E03021F01ED110F4A2E723D1E09170
:200080007D00E03021F024D110F4A0E71BD1E0917E00E03041F024D1BE16CF0620F4E1E0B3
:2000A000F0E0BE0ECF1EE991EFBFF991E991B991A9911895E8E75E1660F417D1A091760034
:2000C000B0917700AE0FBF1FEA2FFB2FF695E79501C00BD1E0937400F09375000895E3E0A7
:2000E000E7BBE8E0E8BBA0E0B0E06AD14E2EA1E0B0E066D17E2EE0EFE41518F4E4E64E2E1E
:20010000FDD0542C872CEEEB4E1610F0E1E0FBD0E3E3E41510F0E0E0F6D0EDEC7E1618F05C
:20012000E1E0E0937900E4E3E71518F0E0E0E0937900E52DF0E03197ACE1B0E02ED1EC5990
:20014000FF4FE0937600F0937700B4DFB39904C0E1E0E0937B00FACFD9D0E1E0E3BFE2E085
:20016000E9BF49BC7894B39904C0E1E0E0937A0010C091D071F0E0E0E0937A009924AA243E
:20018000E0937C00451411F4781419F0E1E0E0937D009ED069F483D031F0E72DA1E0B0E068
:2001A0001AD1872C02C0AAD0542CB3D0A4E1BBD072D0D9F0E4ECF9E0E915FA05B1F46FD0BD
:2001C00029F4E0917800D4D09ED005C0E0917900CFD0E0937900E1E0E0937C00E1E0F0E08C
:2001E0009E0EAF1E96D0AAE09ED059D0D1F462D0B8F0A0917800A13049F4E0EF4E1610F472
:20020000439403C093D0AAE08ED008C0E1E0E41510F44A9403C08AD0AEE185D049BC89D036
:2002200038C041D008F1A0917800A13069F4451410F4439408C083D0F695E795BE16CF06E6
:2002400010F0E0E080D00DC0E0E0E41510F44A9408C06CD074D0BE16CF0618F057D0E1E045
:2002600072D0DD24EE2449BC25D098F0A0917900A13049F4EFEF7E1610F4739403C056D089
:20028000AEE151D004C0E2E0E71508F47A9412DF50D069CFFFCFE0917A00E0300895E09102
:2002A0007B00E0300895E72DAD2DBE2DF0E0AE17BF070895A0917200B0917300AB34E0E04F
:2002C000BE070895ED91FD913196FE93EE930895A0917000B0917100A033E5E7BE070895E6
:2002E000E0917400F09175000895E72DF0E03297ABE1B0E052D0EC59FF4F0895E42DA0E0DA
:20030000B0E069D00895E09378000895E3E2EFBD0895E0E0E0937000E0937100E0937D006A
:20032000E3E0EFBD0895B0E015D0F0CFE3E0EFBD0895E0E0E0937200E09373000895E1E088
:20034000E0937E00CDCFDFDFBB24CC24E0E0E0937E000895109639F08CE291E00197F1F707
:20036000A8951197C9F70895F195E195F0400895EE23E1E009F0EE2708950A2E1B2E81E112
:20038000AA27BB1B05C010F4A00DB11DB695A795F795E7958A95B9F7089504D0EEDF0EF4D4
:2003A000E3DF0895E894F7FF02C0DEDF6894B7FF06C0A095B095119600F8039400FA08952E
:2003C000E199FECFFF93FFB7F894AEBBE09AEDB3FFBFFF910895E19B02C0A895FCCF9FB7F8
:1603E000F894AEBBE09A8DB3E81719F0EDBBE29AE19A9FBF0895B6
:00000001FF
